{
  "abi": [
    {
      "anonymous": false,
      "inputs": [
        {
          "indexed": false,
          "internalType": "address",
          "name": "offer",
          "type": "address"
        },
        {
          "indexed": false,
          "internalType": "uint256",
          "name": "usdcPerWETH",
          "type": "uint256"
        },
        {
          "indexed": false,
          "internalType": "uint256",
          "name": "finalusdcPerWETH",
          "type": "uint256"
        },
        {
          "indexed": false,
          "internalType": "uint256",
          "name": "duration",
          "type": "uint256"
        },
        {
          "indexed": false,
          "internalType": "uint256",
          "name": "wethSize",
          "type": "uint256"
        }
      ],
      "name": "OfferCreated",
      "type": "event"
    },
    {
      "anonymous": false,
      "inputs": [
        {
          "indexed": true,
          "internalType": "address",
          "name": "previousOwner",
          "type": "address"
        },
        {
          "indexed": true,
          "internalType": "address",
          "name": "newOwner",
          "type": "address"
        }
      ],
      "name": "OwnershipTransferred",
      "type": "event"
    },
    {
      "inputs": [
        {
          "internalType": "uint256",
          "name": "_usdcPerWETH",
          "type": "uint256"
        },
        {
          "internalType": "uint256",
          "name": "_finalusdcPerWETH",
          "type": "uint256"
        },
        {
          "internalType": "uint256",
          "name": "_duration",
          "type": "uint256"
        },
        {
          "internalType": "uint256",
          "name": "_wethSize",
          "type": "uint256"
        }
      ],
      "name": "createOffer",
      "outputs": [
        {
          "internalType": "contract LockedWETHOffer",
          "name": "",
          "type": "address"
        }
      ],
      "stateMutability": "nonpayable",
      "type": "function"
    },
    {
      "inputs": [],
      "name": "fee",
      "outputs": [
        {
          "internalType": "uint256",
          "name": "",
          "type": "uint256"
        }
      ],
      "stateMutability": "view",
      "type": "function"
    },
    {
      "inputs": [],
      "name": "getActiveOffers",
      "outputs": [
        {
          "internalType": "contract LockedWETHOffer[]",
          "name": "",
          "type": "address[]"
        }
      ],
      "stateMutability": "view",
      "type": "function"
    },
    {
      "inputs": [],
      "name": "getActiveOffersByOwner",
      "outputs": [
        {
          "internalType": "contract LockedWETHOffer[]",
          "name": "",
          "type": "address[]"
        },
        {
          "internalType": "contract LockedWETHOffer[]",
          "name": "",
          "type": "address[]"
        }
      ],
      "stateMutability": "view",
      "type": "function"
    },
    {
      "inputs": [
        {
          "internalType": "uint256",
          "name": "start",
          "type": "uint256"
        },
        {
          "internalType": "uint256",
          "name": "end",
          "type": "uint256"
        }
      ],
      "name": "getActiveOffersByRange",
      "outputs": [
        {
          "internalType": "contract LockedWETHOffer[]",
          "name": "",
          "type": "address[]"
        }
      ],
      "stateMutability": "view",
      "type": "function"
    },
    {
      "inputs": [
        {
          "internalType": "uint256",
          "name": "",
          "type": "uint256"
        }
      ],
      "name": "offers",
      "outputs": [
        {
          "internalType": "contract LockedWETHOffer",
          "name": "",
          "type": "address"
        }
      ],
      "stateMutability": "view",
      "type": "function"
    },
    {
      "inputs": [],
      "name": "owner",
      "outputs": [
        {
          "internalType": "address",
          "name": "",
          "type": "address"
        }
      ],
      "stateMutability": "view",
      "type": "function"
    },
    {
      "inputs": [],
      "name": "renounceOwnership",
      "outputs": [],
      "stateMutability": "nonpayable",
      "type": "function"
    },
    {
      "inputs": [
        {
          "internalType": "uint256",
          "name": "_fee",
          "type": "uint256"
        }
      ],
      "name": "setFee",
      "outputs": [],
      "stateMutability": "nonpayable",
      "type": "function"
    },
    {
      "inputs": [
        {
          "internalType": "address",
          "name": "newOwner",
          "type": "address"
        }
      ],
      "name": "transferOwnership",
      "outputs": [],
      "stateMutability": "nonpayable",
      "type": "function"
    }
  ],
  "bytecode": {
    "object": "0x6080604052601e60015534801561001557600080fd5b5061001f33610024565b610074565b600080546001600160a01b038381166001600160a01b0319831681178455604051919092169283917f8be0079c531659141344cd1fd0a4f28419497f9722a3daafe3b4186f6b6457e09190a35050565b612131806100836000396000f3fe608060405234801561001057600080fd5b506004361061009e5760003560e01c80638a72ea6a116100665780638a72ea6a146101185780638da5cb5b1461012b578063cba4c4cb1461013c578063ddca3f4314610152578063f2fde38b1461016957600080fd5b80633a97f852146100a35780634cf17f3a146100d357806369fe0e2d146100f3578063715018a6146101085780637ff118ef14610110575b600080fd5b6100b66100b1366004610a3e565b61017c565b6040516001600160a01b0390911681526020015b60405180910390f35b6100e66100e1366004610a70565b610287565b6040516100ca9190610ad6565b610106610101366004610af0565b6103f1565b005b610106610429565b6100e661045f565b6100b6610126366004610af0565b61060e565b6000546001600160a01b03166100b6565b610144610638565b6040516100ca929190610b09565b61015b60015481565b6040519081526020016100ca565b610106610177366004610b4c565b610946565b600080338686600154878760405161019390610a31565b6001600160a01b039096168652602086019490945260408501929092526060840152608083015260a082015260c001604051809103906000f0801580156101de573d6000803e3d6000fd5b50600280546001810182556000919091527f405787fa12a823e0f2b7631cc41b3ba8828b3321ca811111fa75cd3aa3bb5ace0180546001600160a01b0319166001600160a01b0383169081179091556040805191825260208201899052810187905260608101869052608081018590529091507f0210f5b13e008a9a9c9ceddc65320b965c392432edc283c1cd3b6df8341647999060a00160405180910390a195945050505050565b606060006102958484610b7f565b67ffffffffffffffff8111156102ad576102ad610b96565b6040519080825280602002602001820160405280156102d6578160200160208202803683370190505b5090506000845b848110156103e757600281815481106102f8576102f8610bac565b6000918252602091829020015460408051633907d00d60e21b815290516001600160a01b039092169263e41f4034926004808401938290030181865afa158015610346573d6000803e3d6000fd5b505050506040513d601f19601f8201168201806040525081019061036a9190610bc2565b156103d5576002818154811061038257610382610bac565b6000918252602090912001546001600160a01b031683836103a281610be4565b9450815181106103b4576103b4610bac565b60200260200101906001600160a01b031690816001600160a01b0316815250505b806103df81610be4565b9150506102dd565b5090949350505050565b6000546001600160a01b031633146104245760405162461bcd60e51b815260040161041b90610bfd565b60405180910390fd5b600155565b6000546001600160a01b031633146104535760405162461bcd60e51b815260040161041b90610bfd565b61045d60006109e1565b565b60025460609060009067ffffffffffffffff81111561048057610480610b96565b6040519080825280602002602001820160405280156104a9578160200160208202803683370190505b5090506000805b600254811015610606576000600282815481106104cf576104cf610bac565b6000918252602091829020015460408051633907d00d60e21b815290516001600160a01b039092169350839263e41f4034926004808401938290030181865afa158015610520573d6000803e3d6000fd5b505050506040513d601f19601f820116820180604052508101906105449190610bc2565b80156105af5750806001600160a01b031663ecb70fb76040518163ffffffff1660e01b8152600401602060405180830381865afa158015610589573d6000803e3d6000fd5b505050506040513d601f19601f820116820180604052508101906105ad9190610bc2565b155b156105f3578084846105c081610be4565b9550815181106105d2576105d2610bac565b60200260200101906001600160a01b031690816001600160a01b0316815250505b50806105fe81610be4565b9150506104b0565b509092915050565b6002818154811061061e57600080fd5b6000918252602090912001546001600160a01b0316905081565b606080600060028054905067ffffffffffffffff81111561065b5761065b610b96565b604051908082528060200260200182016040528015610684578160200160208202803683370190505b5060025490915060009067ffffffffffffffff8111156106a6576106a6610b96565b6040519080825280602002602001820160405280156106cf578160200160208202803683370190505b50905060008060005b600254811015610939576000600282815481106106f7576106f7610bac565b6000918252602091829020015460408051633907d00d60e21b815290516001600160a01b039092169350839263e41f4034926004808401938290030181865afa158015610748573d6000803e3d6000fd5b505050506040513d601f19601f8201168201806040525081019061076c9190610bc2565b80156107d75750806001600160a01b031663ecb70fb76040518163ffffffff1660e01b8152600401602060405180830381865afa1580156107b1573d6000803e3d6000fd5b505050506040513d601f19601f820116820180604052508101906107d59190610bc2565b155b1561092657336001600160a01b0316816001600160a01b03166308551a536040518163ffffffff1660e01b8152600401602060405180830381865afa158015610824573d6000803e3d6000fd5b505050506040513d601f19601f820116820180604052508101906108489190610c32565b6001600160a01b0316036108c0576002828154811061086957610869610bac565b6000918252602090912001546001600160a01b0316868561088981610be4565b96508151811061089b5761089b610bac565b60200260200101906001600160a01b031690816001600160a01b031681525050610926565b600282815481106108d3576108d3610bac565b6000918252602090912001546001600160a01b031685846108f381610be4565b95508151811061090557610905610bac565b60200260200101906001600160a01b031690816001600160a01b0316815250505b508061093181610be4565b9150506106d8565b5092959194509092505050565b6000546001600160a01b031633146109705760405162461bcd60e51b815260040161041b90610bfd565b6001600160a01b0381166109d55760405162461bcd60e51b815260206004820152602660248201527f4f776e61626c653a206e6577206f776e657220697320746865207a65726f206160448201526564647265737360d01b606482015260840161041b565b6109de816109e1565b50565b600080546001600160a01b038381166001600160a01b0319831681178455604051919092169283917f8be0079c531659141344cd1fd0a4f28419497f9722a3daafe3b4186f6b6457e09190a35050565b6114ac80610c5083390190565b60008060008060808587031215610a5457600080fd5b5050823594602084013594506040840135936060013592509050565b60008060408385031215610a8357600080fd5b50508035926020909101359150565b600081518084526020808501945080840160005b83811015610acb5781516001600160a01b031687529582019590820190600101610aa6565b509495945050505050565b602081526000610ae96020830184610a92565b9392505050565b600060208284031215610b0257600080fd5b5035919050565b604081526000610b1c6040830185610a92565b8281036020840152610b2e8185610a92565b95945050505050565b6001600160a01b03811681146109de57600080fd5b600060208284031215610b5e57600080fd5b8135610ae981610b37565b634e487b7160e01b600052601160045260246000fd5b600082821015610b9157610b91610b69565b500390565b634e487b7160e01b600052604160045260246000fd5b634e487b7160e01b600052603260045260246000fd5b600060208284031215610bd457600080fd5b81518015158114610ae957600080fd5b600060018201610bf657610bf6610b69565b5060010190565b6020808252818101527f4f776e61626c653a2063616c6c6572206973206e6f7420746865206f776e6572604082015260600190565b600060208284031215610c4457600080fd5b8151610ae981610b3756fe6101406040526001805474c02aaa39b223fe8d0a0e5c4f27ead9083c756cc2006001600160a81b0319909116179055600280546001600160a01b03191673a0b86991c6218b36c1d19d4a2e9eb0ce3606eb4817905534801561006057600080fd5b506040516114ac3803806114ac83398101604081905261007f916100ae565b336080526001600160a01b039590951660a05260c09390935260e091909152610100526101205260005561010d565b60008060008060008060c087890312156100c757600080fd5b86516001600160a01b03811681146100de57600080fd5b6020880151604089015160608a015160808b015160a0909b0151939c929b509099909850965090945092505050565b60805160a05160c05160e05161010051610120516112bd6101ef600039600081816101c1015281816102ea01528181610bde01528181610c430152610f0401526000818161038101526104a401526000818161027a015281816102a301528181610f280152610fd101526000818161021e0152818161024201528181610f490152610fa401526000818161017d015281816103580152818161063b01528181610aa601528181610c0f01528181610d760152610ea8015260008181610323015281816105220152818161078a0152818161084d015261097c01526112bd6000f3fe608060405234801561001057600080fd5b50600436106101735760003560e01c8063aa9a0912116100de578063d91c98d311610097578063e41f403411610071578063e41f4034146103a3578063ea8a1af0146103bb578063eb91d37e146103c3578063ecb70fb7146103cb57600080fd5b8063d91c98d31461034d578063dbd0e1b614610356578063ddca3f431461037c57600080fd5b8063aa9a0912146102d5578063ad2e8c9b146102e8578063bd097e211461030e578063c305c91814610316578063c45a01551461031e578063d323145c1461034557600080fd5b80637a374f3d116101305780637a374f3d146102665780637b1f337d1461026f5780639ce05df7146102785780639e73f7ff1461029e578063a44513d6146102c5578063a5749710146102cd57600080fd5b806308551a53146101785780630fb5a6b4146101bc5780633fda5389146101f157806349df728c14610206578063648348cb146102195780636b2236f814610240575b600080fd5b61019f7f000000000000000000000000000000000000000000000000000000000000000081565b6040516001600160a01b0390911681526020015b60405180910390f35b6101e37f000000000000000000000000000000000000000000000000000000000000000081565b6040519081526020016101b3565b6102046101ff366004611108565b6103d8565b005b610204610214366004611136565b610788565b6101e37f000000000000000000000000000000000000000000000000000000000000000081565b7f00000000000000000000000000000000000000000000000000000000000000006101e3565b6101e360005481565b6101e360045481565b7f00000000000000000000000000000000000000000000000000000000000000006101e3565b6101e37f000000000000000000000000000000000000000000000000000000000000000081565b6000546101e3565b6101e3610a05565b6101e36102e336600461115a565b610a7c565b7f00000000000000000000000000000000000000000000000000000000000000006101e3565b610204610a9b565b6004546101e3565b61019f7f000000000000000000000000000000000000000000000000000000000000000081565b6101e3610c93565b6101e360035481565b7f000000000000000000000000000000000000000000000000000000000000000061019f565b6101e37f000000000000000000000000000000000000000000000000000000000000000081565b6103ab610caa565b60405190151581526020016101b3565b610204610d25565b6101e3610eff565b6001546103ab9060ff1681565b6103e0610caa565b6104235760405162461bcd60e51b815260206004820152600f60248201526e6e6f20574554482062616c616e636560881b60448201526064015b60405180910390fd5b60015460ff16156104815760405162461bcd60e51b815260206004820152602260248201527f73656c6c20686173206265656e2070726576696f75736c792063616e63656c6c604482015261195960f21b606482015260840161041a565b60045443101561049057600080fd5b600061049a610eff565b905060006104cb837f0000000000000000000000000000000000000000000000000000000000000000612710610a7c565b905060006104d9828561119c565b905060006104e784866111b3565b6104f990670de0b6b3a76400006111d5565b9050600260009054906101000a90046001600160a01b03166001600160a01b03166323b872dd337f00000000000000000000000000000000000000000000000000000000000000006001600160a01b0316638da5cb5b6040518163ffffffff1660e01b8152600401602060405180830381865afa15801561057e573d6000803e3d6000fd5b505050506040513d601f19601f820116820180604052508101906105a291906111f4565b6040516001600160e01b031960e085901b1681526001600160a01b03928316600482015291166024820152604481018690526064016020604051808303816000875af11580156105f6573d6000803e3d6000fd5b505050506040513d601f19601f8201168201806040525081019061061a9190611211565b506002546040516323b872dd60e01b81523360048201526001600160a01b037f00000000000000000000000000000000000000000000000000000000000000008116602483015260448201859052909116906323b872dd906064016020604051808303816000875af1158015610694573d6000803e3d6000fd5b505050506040513d601f19601f820116820180604052508101906106b89190611211565b5060015460405163a9059cbb60e01b8152336004820152602481018390526101009091046001600160a01b03169063a9059cbb906044016020604051808303816000875af115801561070e573d6000803e3d6000fd5b505050506040513d601f19601f820116820180604052508101906107329190611211565b50600154604080513381526020810184905280820188905260ff90921615156060830152517f19653a43f534293b682e09d5ed08fffed5c828c46a750d8b29651240dfe29b1b9181900360800190a15050505050565b7f00000000000000000000000000000000000000000000000000000000000000006001600160a01b0316638da5cb5b6040518163ffffffff1660e01b8152600401602060405180830381865afa1580156107e6573d6000803e3d6000fd5b505050506040513d601f19601f8201168201806040525081019061080a91906111f4565b6001600160a01b0316336001600160a01b03161461082757600080fd5b6001600160a01b03811673eeeeeeeeeeeeeeeeeeeeeeeeeeeeeeeeeeeeeeee03610909577f00000000000000000000000000000000000000000000000000000000000000006001600160a01b0316638da5cb5b6040518163ffffffff1660e01b8152600401602060405180830381865afa1580156108a9573d6000803e3d6000fd5b505050506040513d601f19601f820116820180604052508101906108cd91906111f4565b6001600160a01b03166108fc479081150290604051600060405180830381858888f19350505050158015610905573d6000803e3d6000fd5b5050565b6040516370a0823160e01b81523060048201526000906001600160a01b038316906370a0823190602401602060405180830381865afa158015610950573d6000803e3d6000fd5b505050506040513d601f19601f820116820180604052508101906109749190611233565b9050610905827f00000000000000000000000000000000000000000000000000000000000000006001600160a01b0316638da5cb5b6040518163ffffffff1660e01b8152600401602060405180830381865afa1580156109d8573d6000803e3d6000fd5b505050506040513d601f19601f820116820180604052508101906109fc91906111f4565b83610ff6565b50565b6001546040516370a0823160e01b815230600482015260009161010090046001600160a01b0316906370a0823190602401602060405180830381865afa158015610a53573d6000803e3d6000fd5b505050506040513d601f19601f82011682018060405250810190610a779190611233565b905090565b600081610a8984866111d5565b610a9391906111b3565b949350505050565b336001600160a01b037f00000000000000000000000000000000000000000000000000000000000000001614610ad057600080fd5b6000546001546040516370a0823160e01b81523360048201526101009091046001600160a01b0316906370a0823190602401602060405180830381865afa158015610b1f573d6000803e3d6000fd5b505050506040513d601f19601f82011682018060405250810190610b439190611233565b1015610b4e57600080fd5b6001546000546040516323b872dd60e01b815233600482015230602482015260448101919091526101009091046001600160a01b0316906323b872dd906064016020604051808303816000875af1158015610bad573d6000803e3d6000fd5b505050506040513d601f19601f82011682018060405250810190610bd19190611211565b50436003819055610c03907f00000000000000000000000000000000000000000000000000000000000000009061119c565b600455600054604080517f00000000000000000000000000000000000000000000000000000000000000006001600160a01b0316815260208101929092527f000000000000000000000000000000000000000000000000000000000000000082820152517f510af8849c69b8873f210fde04de02f721f467b555dcb5505c1a1aab3f0ef0ba9181900360600190a1565b6000610c9d610a05565b600054610a77919061119c565b6001546040516370a0823160e01b815230600482015260009182916101009091046001600160a01b0316906370a0823190602401602060405180830381865afa158015610cfb573d6000803e3d6000fd5b505050506040513d601f19601f82011682018060405250810190610d1f9190611233565b11905090565b610d2d610caa565b610d6b5760405162461bcd60e51b815260206004820152600f60248201526e6e6f20574554482062616c616e636560881b604482015260640161041a565b336001600160a01b037f00000000000000000000000000000000000000000000000000000000000000001614610da057600080fd5b6001546040516370a0823160e01b815230600482015260009161010090046001600160a01b0316906370a0823190602401602060405180830381865afa158015610dee573d6000803e3d6000fd5b505050506040513d601f19601f82011682018060405250810190610e129190611233565b60015460405163a9059cbb60e01b81523360048201526024810183905291925061010090046001600160a01b03169063a9059cbb906044016020604051808303816000875af1158015610e69573d6000803e3d6000fd5b505050506040513d601f19601f82011682018060405250810190610e8d9190611211565b506001805460ff191681179055604080516001600160a01b037f0000000000000000000000000000000000000000000000000000000000000000168152602081018390527f871dc347e88ef58454c9f69d734469ed3f59dd31fd0d6b7960d092da71f4454d910160405180910390a150565b6000807f0000000000000000000000000000000000000000000000000000000000000000610f6d7f00000000000000000000000000000000000000000000000000000000000000007f000000000000000000000000000000000000000000000000000000000000000061119c565b610f7791906111b3565b90506004544311610fcf57600060035443610f92919061119c565b9050610f9e82826111d5565b610fc8907f000000000000000000000000000000000000000000000000000000000000000061119c565b9250505090565b7f000000000000000000000000000000000000000000000000000000000000000091505090565b604080516001600160a01b038481166024830152604480830185905283518084039091018152606490920183526020820180516001600160e01b031663a9059cbb60e01b1790529151600092839290871691611052919061124c565b6000604051808303816000865af19150503d806000811461108f576040519150601f19603f3d011682016040523d82523d6000602084013e611094565b606091505b50915091508180156110be5750805115806110be5750808060200190518101906110be9190611211565b6111015760405162461bcd60e51b81526020600482015260146024820152731cd85999551c985b9cd9995c8e8819985a5b195960621b604482015260640161041a565b5050505050565b60006020828403121561111a57600080fd5b5035919050565b6001600160a01b0381168114610a0257600080fd5b60006020828403121561114857600080fd5b813561115381611121565b9392505050565b60008060006060848603121561116f57600080fd5b505081359360208301359350604090920135919050565b634e487b7160e01b600052601160045260246000fd5b6000828210156111ae576111ae611186565b500390565b6000826111d057634e487b7160e01b600052601260045260246000fd5b500490565b60008160001904831182151516156111ef576111ef611186565b500290565b60006020828403121561120657600080fd5b815161115381611121565b60006020828403121561122357600080fd5b8151801515811461115357600080fd5b60006020828403121561124557600080fd5b5051919050565b6000825160005b8181101561126d5760208186018101518583015201611253565b8181111561127c576000828501525b50919091019291505056fea264697066735822122032f1c32288a3538d6abec2f5967d54956a38c051f2980b67b00f18136d8af4a564736f6c634300080d0033a264697066735822122012b21647c9b43ba3622db03cff4c1d629195c7709ac2c86b6492f96a61c921f264736f6c634300080d0033",
    "linkReferences": {}
  }
}