{
  "abi": [
    {
      "inputs": [
        {
          "internalType": "contract IOfferFactory",
          "name": "factory",
          "type": "address"
        }
      ],
      "name": "getActiveOffersPruned",
      "outputs": [
        {
          "internalType": "contract ILockedWETHOffer[]",
          "name": "",
          "type": "address[]"
        }
      ],
      "stateMutability": "view",
      "type": "function"
    },
    {
      "inputs": [
        {
          "internalType": "contract IOfferFactory",
          "name": "factory",
          "type": "address"
        }
      ],
      "name": "getAllActiveOfferInfo",
      "outputs": [
        {
          "internalType": "address[]",
          "name": "offerAddresses",
          "type": "address[]"
        },
        {
          "internalType": "uint256[]",
          "name": "WETHBalances",
          "type": "uint256[]"
        },
        {
          "internalType": "uint256[]",
          "name": "wethSizes",
          "type": "uint256[]"
        },
        {
          "internalType": "uint256[]",
          "name": "usdcPerWETHs",
          "type": "uint256[]"
        },
        {
          "internalType": "uint256[]",
          "name": "finalusdcPerWETHs",
          "type": "uint256[]"
        },
        {
          "internalType": "uint256[]",
          "name": "endingBlocks",
          "type": "uint256[]"
        }
      ],
      "stateMutability": "view",
      "type": "function"
    },
    {
      "inputs": [
        {
          "internalType": "contract ILockedWETHOffer",
          "name": "offer",
          "type": "address"
        }
      ],
      "name": "getOfferInfo",
      "outputs": [
        {
          "internalType": "uint256",
          "name": "WETHBalance",
          "type": "uint256"
        },
        {
          "internalType": "uint256",
          "name": "wethSize",
          "type": "uint256"
        },
        {
          "internalType": "uint256",
          "name": "usdcPerWETH",
          "type": "uint256"
        },
        {
          "internalType": "uint256",
          "name": "finalusdcPerWETH",
          "type": "uint256"
        },
        {
          "internalType": "uint256",
          "name": "endingBlock",
          "type": "uint256"
        }
      ],
      "stateMutability": "view",
      "type": "function"
    },
    {
      "inputs": [
        {
          "internalType": "contract IOfferFactory",
          "name": "factory",
          "type": "address"
        }
      ],
      "name": "getVolume",
      "outputs": [
        {
          "internalType": "uint256",
          "name": "sum",
          "type": "uint256"
        }
      ],
      "stateMutability": "view",
      "type": "function"
    }
  ],
  "bytecode": {
    "object": "0x6080604052600080546001600160a01b031990811673c02aaa39b223fe8d0a0e5c4f27ead9083c756cc2179091556001805490911673a0b86991c6218b36c1d19d4a2e9eb0ce3606eb4817905534801561005857600080fd5b506110a5806100686000396000f3fe608060405234801561001057600080fd5b506004361061004c5760003560e01c806306cdc841146100515780636ecb9a16146100915780638ba17f86146100b1578063c084d437146100d2575b600080fd5b61006461005f366004610c37565b6100f7565b604080519586526020860194909452928401919091526060830152608082015260a0015b60405180910390f35b6100a461009f366004610c37565b610306565b6040516100889190610c5b565b6100c46100bf366004610c37565b610484565b604051908152602001610088565b6100e56100e0366004610c37565b61065c565b60405161008896959493929190610ce3565b600080546040516370a0823160e01b81526001600160a01b038481166004830152839283928392839216906370a0823190602401602060405180830381865afa158015610148573d6000803e3d6000fd5b505050506040513d601f19601f8201168201806040525081019061016c9190610d97565b866001600160a01b0316637a374f3d6040518163ffffffff1660e01b8152600401602060405180830381865afa1580156101aa573d6000803e3d6000fd5b505050506040513d601f19601f820116820180604052508101906101ce9190610d97565b876001600160a01b031663648348cb6040518163ffffffff1660e01b8152600401602060405180830381865afa15801561020c573d6000803e3d6000fd5b505050506040513d601f19601f820116820180604052508101906102309190610d97565b886001600160a01b0316639e73f7ff6040518163ffffffff1660e01b8152600401602060405180830381865afa15801561026e573d6000803e3d6000fd5b505050506040513d601f19601f820116820180604052508101906102929190610d97565b896001600160a01b0316637b1f337d6040518163ffffffff1660e01b8152600401602060405180830381865afa1580156102d0573d6000803e3d6000fd5b505050506040513d601f19601f820116820180604052508101906102f49190610d97565b939a9299509097509550909350915050565b60606000826001600160a01b0316637ff118ef6040518163ffffffff1660e01b8152600401600060405180830381865afa158015610348573d6000803e3d6000fd5b505050506040513d6000823e601f3d908101601f191682016040526103709190810190610dd6565b90506000805b82518110156103d25760006001600160a01b031683828151811061039c5761039c610e9b565b60200260200101516001600160a01b0316146103c057816103bc81610ec7565b9250505b806103ca81610ec7565b915050610376565b5060008167ffffffffffffffff8111156103ee576103ee610db0565b604051908082528060200260200182016040528015610417578160200160208202803683370190505b50905060005b8281101561047b5783818151811061043757610437610e9b565b602002602001015182828151811061045157610451610e9b565b6001600160a01b03909216602092830291909101909101528061047381610ec7565b91505061041d565b50949350505050565b60408051602080820183526001546001600160a01b0390811683528351638da5cb5b60e01b81529351600094859392871692638da5cb5b926004808401938290030181865afa1580156104db573d6000803e3d6000fd5b505050506040513d601f19601f820116820180604052508101906104ff9190610ee0565b90506000805b60018110156106465783816001811061052057610520610e9b565b60200201516001600160a01b031663313ce5676040518163ffffffff1660e01b8152600401602060405180830381865afa158015610562573d6000803e3d6000fd5b505050506040513d601f19601f820116820180604052508101906105869190610efd565b610591906012610f20565b61059c90600a611029565b8482600181106105ae576105ae610e9b565b60200201516040516370a0823160e01b81526001600160a01b038681166004830152909116906370a0823190602401602060405180830381865afa1580156105fa573d6000803e3d6000fd5b505050506040513d601f19601f8201168201806040525081019061061e9190610d97565b6106289190611038565b6106329083611057565b91508061063e81610ec7565b915050610505565b506106538161014d611038565b95945050505050565b6060806060806060806000876001600160a01b0316637ff118ef6040518163ffffffff1660e01b8152600401600060405180830381865afa1580156106a5573d6000803e3d6000fd5b505050506040513d6000823e601f3d908101601f191682016040526106cd9190810190610dd6565b80519091508067ffffffffffffffff8111156106eb576106eb610db0565b604051908082528060200260200182016040528015610714578160200160208202803683370190505b5097508067ffffffffffffffff81111561073057610730610db0565b604051908082528060200260200182016040528015610759578160200160208202803683370190505b5096508067ffffffffffffffff81111561077557610775610db0565b60405190808252806020026020018201604052801561079e578160200160208202803683370190505b5095508067ffffffffffffffff8111156107ba576107ba610db0565b6040519080825280602002602001820160405280156107e3578160200160208202803683370190505b5094508067ffffffffffffffff8111156107ff576107ff610db0565b604051908082528060200260200182016040528015610828578160200160208202803683370190505b5093508067ffffffffffffffff81111561084457610844610db0565b60405190808252806020026020018201604052801561086d578160200160208202803683370190505b5092506000805b8351811015610c12576000805485516001600160a01b03909116906370a08231908790859081106108a7576108a7610e9b565b60200260200101516040518263ffffffff1660e01b81526004016108da91906001600160a01b0391909116815260200190565b602060405180830381865afa1580156108f7573d6000803e3d6000fd5b505050506040513d601f19601f8201168201806040525081019061091b9190610d97565b90508015610bff5784828151811061093557610935610e9b565b60200260200101518b848151811061094f5761094f610e9b565b60200260200101906001600160a01b031690816001600160a01b031681525050808a848151811061098257610982610e9b565b6020026020010181815250508482815181106109a0576109a0610e9b565b60200260200101516001600160a01b0316637a374f3d6040518163ffffffff1660e01b8152600401602060405180830381865afa1580156109e5573d6000803e3d6000fd5b505050506040513d601f19601f82011682018060405250810190610a099190610d97565b898481518110610a1b57610a1b610e9b565b602002602001018181525050848281518110610a3957610a39610e9b565b60200260200101516001600160a01b031663648348cb6040518163ffffffff1660e01b8152600401602060405180830381865afa158015610a7e573d6000803e3d6000fd5b505050506040513d601f19601f82011682018060405250810190610aa29190610d97565b888481518110610ab457610ab4610e9b565b602002602001018181525050848281518110610ad257610ad2610e9b565b60200260200101516001600160a01b0316639e73f7ff6040518163ffffffff1660e01b8152600401602060405180830381865afa158015610b17573d6000803e3d6000fd5b505050506040513d601f19601f82011682018060405250810190610b3b9190610d97565b878481518110610b4d57610b4d610e9b565b602002602001018181525050848281518110610b6b57610b6b610e9b565b60200260200101516001600160a01b0316637b1f337d6040518163ffffffff1660e01b8152600401602060405180830381865afa158015610bb0573d6000803e3d6000fd5b505050506040513d601f19601f82011682018060405250810190610bd49190610d97565b868481518110610be657610be6610e9b565b602090810291909101015282610bfb81610ec7565b9350505b5080610c0a81610ec7565b915050610874565b5050505091939550919395565b6001600160a01b0381168114610c3457600080fd5b50565b600060208284031215610c4957600080fd5b8135610c5481610c1f565b9392505050565b6020808252825182820181905260009190848201906040850190845b81811015610c9c5783516001600160a01b031683529284019291840191600101610c77565b50909695505050505050565b600081518084526020808501945080840160005b83811015610cd857815187529582019590820190600101610cbc565b509495945050505050565b60c0808252875190820181905260009060209060e0840190828b01845b82811015610d255781516001600160a01b031684529284019290840190600101610d00565b50505083810382850152610d39818a610ca8565b9150508281036040840152610d4e8188610ca8565b90508281036060840152610d628187610ca8565b90508281036080840152610d768186610ca8565b905082810360a0840152610d8a8185610ca8565b9998505050505050505050565b600060208284031215610da957600080fd5b5051919050565b634e487b7160e01b600052604160045260246000fd5b8051610dd181610c1f565b919050565b60006020808385031215610de957600080fd5b825167ffffffffffffffff80821115610e0157600080fd5b818501915085601f830112610e1557600080fd5b815181811115610e2757610e27610db0565b8060051b604051601f19603f83011681018181108582111715610e4c57610e4c610db0565b604052918252848201925083810185019188831115610e6a57600080fd5b938501935b82851015610e8f57610e8085610dc6565b84529385019392850192610e6f565b98975050505050505050565b634e487b7160e01b600052603260045260246000fd5b634e487b7160e01b600052601160045260246000fd5b600060018201610ed957610ed9610eb1565b5060010190565b600060208284031215610ef257600080fd5b8151610c5481610c1f565b600060208284031215610f0f57600080fd5b815160ff81168114610c5457600080fd5b600060ff821660ff841680821015610f3a57610f3a610eb1565b90039392505050565b600181815b80851115610f7e578160001904821115610f6457610f64610eb1565b80851615610f7157918102915b93841c9390800290610f48565b509250929050565b600082610f9557506001611023565b81610fa257506000611023565b8160018114610fb85760028114610fc257610fde565b6001915050611023565b60ff841115610fd357610fd3610eb1565b50506001821b611023565b5060208310610133831016604e8410600b8410161715611001575081810a611023565b61100b8383610f43565b806000190482111561101f5761101f610eb1565b0290505b92915050565b6000610c5460ff841683610f86565b600081600019048311821515161561105257611052610eb1565b500290565b6000821982111561106a5761106a610eb1565b50019056fea2646970667358221220308e3cdaa48ba36601c81f155d2017122e60f8e4e8801c23598401ea708a9be364736f6c634300080d0033",
    "linkReferences": {}
  }
}